:020000040800F2
:10000000A077002045010008113F0008AD2000083E
:100010004B3E0008F5110008914D0008000000005B
:10002000000000000000000000000000314900084E
:10003000DD1200080000000025430008C149000847
:100040005F0100085F0100085F0100085F01000810
:100050005F0100085F0100085F0100085F01000800
:100060005F0100085F0100085F0100085F010008F0
:100070005F0100085F0100085F0100085F010008E0
:100080005F0100085F0100085F0100085F010008D0
:100090005F0100085F0100085F0100085F010008C0
:1000A0005F0100085F0100085F0100085F010008B0
:1000B000C94B00085F0100085F0100085F010008EC
:1000C0005F0100085F0100085F0100085F01000890
:1000D0005F010008F94C00085F0100085F0100089B
:1000E0005F0100085F0100085F0100085F01000870
:1000F0005F0100085F0100085F0100085F01000860
:100100005F0100085F010008F14B00085F01000873
:100110005F0100085F0100086D4C00085F010008E6
:100120005F0100085F0100085F0100085F0100082F
:10013000DFF80CD000F050FE00480047759F000823
:10014000A07700200648804706480047FEE7FEE704
:10015000FEE7FEE7FEE7FEE7FEE7FEE7FEE7FEE777
:10016000C9490008310100082DE9FF4F2DED0A8B28
:100170000A98D0E9015807886FF0030000EB870068
:100180002C185FEAD3099FEDFE9A18BF4FEAD70AF1
:1001900000F0B881B1EC010AB0EE492AC446B0EED5
:1001A000423AA4EC010AF0EE422AB1EC010AF0EE68
:1001B000420AF0EE428AF0EE423AA4EC010AB0EEB6
:1001C000424AB1EC010AF0EE424A05F11C005FEA36
:1001D0000A06A4EC010AB1EC010AA4EC010AB1EC94
:1001E000010AA4EC010AB1EC010AA4EC010AB1EC89
:1001F000010AA4EC010AB1EC010AA4EC010AD5ED54
:10020000007A95ED017AD5ED026A95ED036AD5ED98
:10021000045A95ED050A95ED061A00F0258100BFF8
:10022000BCEC015AB0EC018A67EE85CA67EE051A8C
:1002300026EE85BA66EE05BA65EE859A20EE05AA29
:1002400061EE05AA28EE05CABCEC015A73EE211A2C
:1002500030EEAB3AFCEC010A72EE8B2A34EE2A4AFD
:1002600073EE8A3AF0EC017A32EE2C2A78EEA98A03
:1002700067EE05CA74EE8C4A66EE05BA65EE859A9D
:1002800061EE05AA28EE05BA26EE85CA20EE05AA7B
:1002900027EE855AB0EC017A32EE2C2A71EE8C1AD8
:1002A00072EEAB2A33EE293A78EE8A8A73EEAA3AD6
:1002B00034EE0B4A74EE854A66EEA0CA66EE20BAAA
:1002C00025EEA0BA20EE205A61EE209A28EE20AA50
:1002D00067EEA0AA27EE20CAFCEC010A33EE053A2D
:1002E000F0EC016A38EEA95A32EE2C2A71EEAB1A04
:1002F00072EE8B2A73EE8A3A34EE2A4A74EE8C4AF6
:1003000066EE20CA65EEA0BA60EE209A61EE208A01
:1003100028EE20AA67EEA0AA27EE20BA26EEA0CAF1
:10032000FCEC010A32EE2C2AB0EC016A71EEAB1A39
:1003300072EEA92A33EE283A35EE0A5A73EEAA3A3B
:1003400034EE0B4A74EE8C4A65EEA0CA60EE20BA19
:1003500021EE20BA68EE208A67EEA09A27EE20AA46
:1003600066EEA0AA26EE20CAFCEC010A32EE2C2A88
:10037000F0EC015A71EEAB1A72EE8B2A33EE283A8A
:1003800035EE295A73EE8A3A34EE2A4A74EE8C4AD4
:1003900060EE20CA21EE20BA68EE20BA67EEA08A8D
:1003A00067EE209A26EEA0AA66EE20AA25EEA0CA45
:1003B000FCEC010A32EE2C2AB0EC010A71EE8B1A29
:1003C00072EEAB2A33EE283A35EE295A73EE8A3AAA
:1003D00034EE2A4A74EE8C4A61EE20CA28EE20CA16
:1003E00027EEA0BA67EE208A66EEA09A26EE20AA33
:1003F00065EEA0AA60EE20BAFCEC010A71EE8C1A40
:10040000B0EC011A72EE8B2A73EE288A35EE295A67
:1004100028EE20CA73EE8A3A34EE2A4A74EEAB4ACA
:1004200026EEA0BA32EE2C2A27EEA03A67EE20BACA
:1004300066EE20AA25EEA0AA20EE208A61EE209A80
:1004400078EE8B0A32EE0C2A31EE833A72EEAB2A4A
:1004500075EE2A8A73EE8A3A34EE084A74EEA94A97
:10046000761E7FF4DDAE00BF17F0070634D000BF64
:10047000BCEC015A761EF0EC011A67EE85AA67EE15
:10048000059A26EE85BA66EE05BA25EE858A20EE37
:1004900005CA21EE05AA21EE855AF0EE477AB0EEA4
:1004A000667AF0EE466AB0EE656AF0EE405A32EED9
:1004B0002A2A33EE293A72EE8B2A70EEAB0A78EED6
:1004C000888A73EE8C3A34EE0A4A74EE854AB0EEAE
:1004D000410AB0EE611ACBD1A2EC012A2035A2EC80
:1004E000013AB9F10109E2EC012AE2EC010AE2EC7D
:1004F000018AE2EC013AA2EC014AE2EC014A7FF403
:1005000049AE00BF13F0070B18BFA7F1020E60D071
:10051000B1EC010AF0EE491A2E1D781EA4EC010A76
:1005200095ED000AD8ED000A08F10409B0F1004F7A
:1005300040EE201A09D300BFB6EC010A401EF9ECC8
:10054000010A40EE201AF7D13DE0BEF1000F2EDD8A
:10055000A6F1040CA9F1040310F0010F09D10CF16C
:10056000040C03F104039CED000AD3ED000A40EEF5
:10057000201ADCED010A93ED010A5FEA6E0A01E040
:100580000000000013D000BF40EE801A0CF1080CF0
:1005900003F108039CED002A93ED001ADCED010A3B
:1005A00093ED010A42EE011ABAF1010AECD1401EA4
:1005B00009D406EB800309EB800093ED000AD0ED2F
:1005C000000A40EE201A2D1DBBF1010BE2EC011ACE
:1005D0009ED10A98A7F1010C4FEA9C024068B2F143
:1005E000004F12D3B5EC010A521EA0EC010AB5EC83
:1005F000010AA0EC010AB5EC010AA0EC010AB5EC75
:10060000010AA0EC010AEDD116E09300002B13DDE6
:100610002C1F011F5FEA630394ED010A083481ED8A
:10062000010A94ED000A08315B1E81ED000AF3D146
:1006300005EB021500EB02100CF00301B1F1004FC5
:100640000BD300BFB5EC010A491EA0EC010AF9D199
:10065000BDEC0A8B04B0BDE8F08F0029F8DD2A1F3D
:10066000031F11F0010F05D0121D1B1D92ED000A92
:1006700083ED000A4808EBD092ED010A083283EDC1
:10068000010A92ED000A0833401E83ED000AF3D1FF
:10069000DEE770B504460498218008448000011FFD
:1006A0001D461846A26000F03AF8656070BD2DE95D
:1006B000F0410024061B254671F1000605DA0124ED
:1006C0000027D0EB070067EB0101161E73F100064F
:1006D00005DA0027D2EB0702012567EB030300F0E0
:1006E00003FA86460E4617469C46AC4204D00025C7
:1006F000D0EB050E65EB010624B10020D2EB00071C
:1007000060EB030C704631463A466346BDE8F08123
:10071000D2B201E000F8012B491EFBD27047002243
:10072000F6E710B513460A4604461946FFF7F0FFF0
:10073000204610BD30B504460020034600E05B1C97
:10074000934203D2E05CCD5C401BF8D030BD2DE974
:10075000FE4F804681EA0300C00F0C46009021F056
:10076000004123F00045B8EB0200A94105D2404604
:10077000214690461C460B46024623F0004010439B
:1007800047D0270DC7F30A00C3F30A510290401A5D
:10079000019040286BDAC3F3130040F4801B0098EB
:1007A000924620B10023D2EB030A63EB0B0B0198B6
:1007B0005946C0F14002504600F0C7F906460D46C2
:1007C00050465946019A00F0DFF910EB08006141EC
:1007D000002487EA115284EAE7731A4340D0009A52
:1007E00062B3019A012A4FEA075215DC001B61EB44
:1007F00002014FF0004202EA0752CDE90042001C1C
:1008000041F5801132462B4600F016FA03B0BDE8E0
:10081000F08F40462146F9E7001B61EB0201001C06
:1008200041F5801300185B412018A2F5001747EB33
:10083000030140EAD570B6196D4111E06D084FEA29
:10084000360645EAC0754FEA0752001B61EB02010C
:10085000001C41F5801149084FEA30000019514150
:1008600032462B4603B0BDE8F04F00F0D6B90098F1
:10087000012240000023D0EB020263EBE0730098FA
:1008800021464FEAE074B8EB000061EB0401E9E7B0
:1008900083F000435BE781F0004158E72DE9FE4F0C
:1008A00081EA030404F0004421F0004100944FF079
:1008B000000B23F0004350EA01045ED052EA030427
:1008C0005BD0C3F30A54C1F30A552C44A4F2F334A9
:1008D0000194A0FB0254C1F3130141F48011C3F34E
:1008E000130343F4801301FB024400FB034E840A0C
:1008F000970A44EA815447EA8357A4FB07680295A4
:100900008D0A05FB07854FEA932C04FB0C54270541
:10091000029D4FEA065847EA1637B5EB08056EEB1D
:10092000070C870E920E47EA811742EA8312A7FB53
:100930000201B6EB0B0164EB00042B0D43EA0C3310
:100940005E1844EB1C50DA465146E7FB0201C5F342
:1009500013044FEA0B3343EA14534FEA0432019C69
:1009600043EA0603A4F10C040294009CCDE900B410
:1009700000F062F903B0BDE8F08F00200146F9E70E
:100980002DE9F04D81EA030404F0004B21F000450D
:1009900014464FF0000A23F0004150EA050220D02F
:1009A00054EA01021DD0C5F30A570246C5F31303EA
:1009B000C1F31300C1F30A5640F4801543F48013C9
:1009C000A7EB0608101BD64608F2FD3873EB0500AE
:1009D00002D308F1010801E092185B41B8F1000F61
:1009E00003DA00200146BDE8F08D00204FF48011AD
:1009F000064684460EE0171B73EB050705D3121B52
:100A000063EB050306434CEA010C49084FEA30004A
:100A100092185B4150EA0107EDD152EA030012D06F
:100A200082EA040083EA0501084305D0101BAB41AC
:100A300006D20122002306E000224FF0004302E02C
:100A40006FF0010253101AEB06004CEB085110EB4B
:100A50000A0041EB0B01BDE8F04D00F0DEB800F0FC
:100A6000004230F000400AD0C10D01F56071C0F3C2
:100A7000160042EA0151C2084007114370470020A6
:100A80000146704701F0004330B421F0004150EAC4
:100A9000010206D00A0DA2F56072C1F31301002A0B
:100AA00002DC30BC00207047440F44EAC104C1009E
:100AB000E01830BC00EBC25000F078B830B50B46FF
:100AC000014600202022012409E021FA02F59D427E
:100AD00005D303FA02F5491B04FA02F52844151E52
:100AE000A2F10102F1DC30BD2DE9F05F05460020E6
:100AF00092469B4688460646814640241BE028468F
:100B000041464746224600F02FF853465A46C01A3F
:100B1000914110D311461846224600F016F82D1ABE
:100B200067EB01084F4622460120002100F00DF836
:100B300017EB00094E41201EA4F10104DFDC4846FA
:100B400031462A464346BDE8F09F202A04DB203A7E
:100B500000FA02F1002070479140C2F1200320FA10
:100B600003F3194390407047202A04DB203A21FA0E
:100B700002F00021704721FA02F3D040C2F12002B6
:100B80009140084319467047202A06DBCB17203ACC
:100B900041FA02F043EAE07306E041FA02F3D04082
:100BA000C2F1200291400843194670470029A8BFAE
:100BB0007047401C490008BF20F00100704710B486
:100BC000B0FA80FC00FA0CF050EA010404BF10BC3B
:100BD000704749B1CCF1200421FA04F411FA0CF168
:100BE00018BF012121430843A3EB0C01CB1D4FEAA1
:100BF00000614FEA102042BF002010BC704700EB9C
:100C0000C35010440029A4BF10BC7047401C4900C9
:100C100008BF20F0010010BC704710B5141E73F11E
:100C2000000408DA401C41F1000192185B411A43AC
:100C300001D120F0010010BD2DE9F04D92469B46F8
:100C400011B1B1FA81F202E0B0FA80F2203290469E
:100C5000FFF77BFF04460F4640EA0A0041EA0B011A
:100C600053465A46084313D0114653EA010019D09F
:100C7000C8F140025046FFF777FF05460E46504642
:100C800059464246FFF761FF084305D0012004E0C2
:100C900020463946BDE8F08D0020054346EAE0765F
:100CA0002C4337430A986305E40AA0EB08000022AE
:100CB000FD0A44EA47540A3002D500200146E9E71C
:100CC000010510196941DDE9084500196941BDE8D0
:100CD000F04DA2E72DE9F04D00231A461B1A8A4178
:100CE00003DB00200146BDE8F08DC1F30A52C1F3D9
:100CF000130141F480154FF0000BD10702D1001809
:100D00006D41521E0027044640F2FF11384601EBA8
:100D1000620A3E468046024600204FF48011FFF7EB
:100D200023FFC2197141BB1846EB0100B4EB030C61
:100D300075EB000C04D3E41A65EB000517460E466C
:100D4000241908F101006D4180463428E3DDF919CA
:100D500046EB0600091BA84103D24FF0FF321346B1
:100D600001E0002213461BEB070046EB0A51BDE8E9
:100D7000F04DFFF752BFC1F30A52C1F3130140F225
:100D8000FF3341F480119A4202DA00200146704795
:100D900040F233439A42A2F2334202DC5242FFF75E
:100DA000E3BEFFF7D2BE000030B5041E71F10004AF
:100DB00004DB4FF00044404264EB0101141E73F168
:100DC000000405DB1C464FF00043524263EB040372
:100DD000994208BF904230BD064C074D06E0E068DE
:100DE00040F0010394E8070098471034AC42F6D372
:100DF000FFF7A2F938AE020858AE020870B58C1899
:100E000010F8015B15F0070301D110F8013B2A111E
:100E100006D110F8012B03E010F8016B01F8016B0B
:100E20005B1EF9D12B0705D40023521E0DD401F807
:100E3000013BFAE710F8013BCB1A921C03E013F8D0
:100E4000015B01F8015B521EF9D5A142D8D3002005
:100E500070BD00000FB4F8B505460E4648210020CD
:100E60000BF038F804460020A0719DF82000207196
:100E7000A661287D84F8300000202060A081E081F8
:100E80003F48A0633F4820643F4860640020E0631F
:100E900060633E4805603E48006830B900206071DC
:100EA0003B4804603B4804600CE03A4800684079E5
:100EB000401C60713748006804603648006800686C
:100EC00034490860A86820B90020A071AC60EC60CB
:100ED0000AE0E8688079401CA071A0796875E8682C
:100EE0000460E8680068E860E86841792AA004F0D6
:100EF000DDF809A800902079092838D2DFE800F051
:100F00003730050A1C1B090829002A48E0632FE036
:100F100000BF00BF0098006860620098001D00904C
:100F2000606A007884F82800009800686063009880
:100F3000001D00901CE000BF00980068E06200986F
:100F4000001D00900098006860630098001D0090EC
:100F50000EE000980068E0610098001D009000BF5E
:100F60000098006860630098001D009000BF00BFFB
:100F700000BF002000902046F8BC5DF814FB000084
:100F80004D4900083549000891430008E801002058
:100F9000EC010020F0010020746869736C696E65D3
:100FA0004964496E4164644974656D3A2564202042
:100FB000202000006549000870B505460E462C212A
:100FC00000200AF087FF04460020E082208360832F
:100FD000A083E0832084144860620020207560753F
:100FE000A060E0602060257126611048006830B97B
:100FF000002020750D4804600D4804600CE00C488A
:101000000068007D401C207509480068046008489D
:10101000006800680649086005480068017D05A071
:1010200004F044F8204670BD550E0008E40100208D
:10103000E801002074686973706167656964496ECE
:10104000416464506167653A2564202020200000D7
:1010500010B540F203600BF005FB4FF4C0600BF0DD
:1010600001FB01210D4808F03DFD01210C4808F06D
:1010700039FD1023032218210A4808F0CCFC102166
:10108000084808F0BFFC4FF4FA5003F021FD01209E
:10109000054908706220887210BD000000081A001F
:1010A00000013000000C01401018002070B505460A
:1010B0000B480BF077FF0B480560002401E0601C33
:1010C00084B20848006810F824003D28F7D106488B
:1010D000C4800020044908810120887070BD000090
:1010E00000040040480000201018002010B53C48C3
:1010F0004078002854D03A480078002850D038482A
:1011000000893749C98888422ADA35490989354A28
:10111000126812F82110344A32F8110003F034FC3E
:10112000324908602E4909892E4A126812F82110A6
:101130002D4A32F8110003F027FC2949897AC1F1C0
:10114000640190FBF1F02949083108602448808847
:10115000401E2349888025482C380BF028FF0AE0E0
:1011600022482C380BF01EFF00201D49487010212A
:101170001F4808F047FC1A4880884FF6FF718842E4
:1011800016DB17480089401C15490881084600896C
:101190001449096801EB800040881149888007E004
:1011A00012482C380BF0FEFE1021114808F02AFCE2
:1011B0000B48807898B10A48007880B1002008492F
:1011C00088700846008950B9012048700846008997
:1011D0000449096801EB800040880149888010BDFE
:1011E000101800204800002090F200082C04004055
:1011F000000C014000BFFEE710B504460022114676
:1012000025200AF085FE40F202600BF02BFA4FF425
:101210000073032218211D4808F0FDFB4FF4806382
:1012200003220421194808F0F6FB40F20E600BF08F
:1012300019FA17480DF04AFF214615480DF0F4FE43
:10124000002113480DF0F1FF002111480DF0FDFFC2
:1012500000210F480DF0D9FF04210D480DF0DDFFEE
:1012600008210B480DF0E9FF09480DF077FF40F227
:10127000053107480DF093FF40F2073104480DF0A7
:101280008EFF00200349087010BD000000080140D7
:1012900000380140DA01002030B50346002016E096
:1012A000B3F900509C68645D0C541C88641C24B223
:1012B0001C80B3F90040B3F90450AC4201DB0024B8
:1012C0001C80441C20B2DC88641E24B2DC80B3F98C
:1012D0000640002C01DD9042E2DB30BD704770B566
:1012E0000346002016E00C5CB3F902609D68AC5523
:1012F0005C88641C24B25C80B3F90240B3F90450EA
:10130000AC4201DB00245C80441C20B2DC88641CFD
:1013100024B2DC80B3F90640B3F90450AC4201DAE0
:101320009042E0DB70BD000010B5002403F01EF811
:101330000446B4F1FF3F07D0012C0BD119480078C7
:10134000401C1849087006E017480078401C1649F0
:10135000087000E000BF00BF12480078022809DBD7
:10136000002010490870104908701048FFF79EFED1
:10137000012010BD0C480078022807DA09480078DF
:1013800001280DD108480078012809D1002005491D
:101390000870054908700548FFF788FE0220E8E755
:1013A0000020E6E788010020890100204C00002091
:1013B00000B587B040F203600BF054F940F20270C0
:1013C0000BF050F94FF4C0600BF04CF9C02304222D
:1013D00011461F4808F01FFB03A80BF01FFF002059
:1013E000ADF80E00ADF81200ADF810004FF6FF702A
:1013F00005900020ADF80C008DF8180003A91548E1
:101400000BF0DEFD01A80BF012FC0A20ADF80A007B
:1014100001AA00210F480BF01FFE01AA01210D486F
:101420000BF01AFE00231A4601210A480BF0D6FEE3
:101430004FF4004107480BF045FD022201211E2018
:101440000AF066FD03480BF0B2FD07B000BD0000D6
:10145000000C014000080040024800780249087072
:10146000704700003C02002010180020044890ED56
:10147000000ABCEEC00A10EE100A024988727047DA
:10148000580200201018002038B559480068594902
:101490000968401A05280FD957480078401C56495A
:1014A00008705348006853490860534800784E2834
:1014B00002DD0020504908705048007801280BD107
:1014C0004F484D49097830F81100C01C00B24C4912
:1014D000494A127821F812004848007802280BD1B6
:1014E00047484549097830F81100801E00B2444948
:1014F000414A127821F8120042A20D21142002F074
:10150000F5FE012412E03E4A32F81420293293B24B
:10151000621E3B4D35F81220293291B204F11802B7
:1015200090B2521C02F00EFE601CC4B24F2CEADBDB
:101530003D233148027819323B210078193002F0FE
:1015400001FE3A2319221146104602F0FBFD1C232E
:1015500016221921084602F0F5FD3A2367221946A2
:10156000192002F0EFFD3D2364223A21672002F0AA
:10157000E9FD022002F030FE0420244C0090248873
:10158000A3B2234C2488A2B2224C2488A1B2214CBD
:101590002488A0B202F0E6FD012002F01DFE08231F
:1015A00002221D491D4801F071FE082302221C4938
:1015B000184801F06BFE082303221A49134801F072
:1015C00065FE082303221849114801F05FFE174801
:1015D000007802280AD10020104908800D490880AF
:1015E00080200B4908804A200849088038BD000047
:1015F0003400002064030020680300201300002052
:10160000782F0020576176652D743A005E03002024
:101610005A030020560300205403002052030020E8
:1016200058030020600300205C030020120000200B
:1016300010B5012226492748006806F075FF0446C8
:10164000002C3FD12448254B042201682148006822
:1016500007F02AF82048214B042201691D48006840
:1016600007F022F81C481D4B0422016A1948006843
:1016700007F01AF81848194B0422016B1548006846
:1016800007F012F81448154B0422016C1148006849
:1016900007F00AF81048114B0422016D0D4800684C
:1016A00007F002F80C480D4B0422016E094800684F
:1016B00006F0FAFF0848094B0422016F054800684C
:1016C00006F0F2FF0348006806F04CFB10BD000076
:1016D00052FF000894030020A4020020A003002071
:1016E00038B5D748007800285AD0D648046808F0A2
:1016F00009FE49E002F0FEFCD3A21421084602F0E4
:10170000F5FDD4A22821052002F0F0FDD54802F015
:101710006DFDD5A002F04EFDC0F18000C0F34F0575
:10172000D1A23F21284602F0EFFDD54802F05EFD30
:10173000D448D5490090098888B22E232022002160
:1017400002F05EFD022002F047FDBE480068001B6B
:10175000C0F34F020E233221002002F0D3FC0120FF
:1017600002F03AFD08230422C849C74801F08EFD63
:1017700002F02AFDC6480078012805D10020C249A0
:101780000880AF49087004E0AE480068001BFF28DD
:10179000B0D900BF0020BC490880A949087000BF2B
:1017A000BC4ABD49BD4802F019F9BD490988491D27
:1017B00088B2BCA20D2102F099FDBF4810231A4641
:1017C00000210090084602F01BFDBC48007848B19B
:1017D0002C20BB490880BB48407868B9BA48FFF75D
:1017E00065FC09E0B548007830B9B84800882C2875
:1017F00002D10020B2490880A748006800280CDD0B
:10180000A54890ED000AB8EEC00AB148D0ED000A34
:10181000B4EEE00AF1EE10FA1DD3A04800680028EB
:101820000CDD9E4890ED000AB8EEC00AA948D0ED44
:10183000000AB4EEE00AF1EE10FA0CD3974890EDEE
:10184000000AB8EEC00AA448D0ED000AB4EEE00ADF
:10185000F1EE10FA05DD9B48407810B99F48FFF77C
:1018600025FC9A4909888BB28D49B1F9001000EE28
:10187000101AF8EEC00A9FED9A1AB0EE080A00EEB0
:10188000C10ABCEEC00A10EE101A88B20A22142156
:1018900002F038FC93480078C8B18148B0F90000E4
:1018A00000EE100AB8EEC00A9FED8F1AC0EE010AD2
:1018B0009FED8E0A30EE800ABCEEC00A10EE100AD0
:1018C00084B28BA23921204602F010FD18E0744842
:1018D000B0F9000000EE100AB8EEC00ADFED820A8F
:1018E00080EE201A9FED810A31EE000ABCEEC00A9C
:1018F00010EE100A84B280A23921204602F0F6FCD4
:101900007F4802F073FC6648B0F9000000EE100A50
:10191000B8EEC00AF7EE080A80EE201AB3EE090A04
:1019200031EE000ABCEEC00A10EE100A84B25B4829
:10193000008882B22821204602F0C2FC564909885C
:101940008AB257490988503188B2282102F0B8FC80
:101950004B4802F04BFC022002F03EFC0420694C94
:1019600000902488A3B2684C2488A2B2674C2488D3
:10197000A1B24B4C2488654D2D882C44A0B202F0B6
:10198000F1FB012002F028FC444800680A2803DB30
:101990004248006896281DDD6FF01F005C490880F2
:1019A00038483F4900900988803188B22E23202290
:1019B000002102F025FC2B4802F018FC3849098868
:1019C000853188B253A23F2102F09EFC2C4802F0E0
:1019D0000DFC02E000204E490880082302224C49F9
:1019E0002F4801F053FC082304223549374801F001
:1019F0004DFC082302224B49444801F047FC0823D0
:101A0000032249493F4801F041FC0823032247498A
:101A10003D4801F03BFC4648007802280ED180206A
:101A200044490880002039490880802036490880D0
:101A30004A203449088001200149087038BD00005F
:101A400036030020340000205573652069742D3E54
:101A50003E0000004C494B45205449485321212168
:101A60000000000070090108E79FADE68C89E8B529
:101A7000B0E8BF87414E494D4154494F4E210000C7
:101A8000E3030108A65101084C0300204E03002087
:101A900028000020000000200C000020080000208A
:101AA00038030020202048522F62706D20205350B0
:101AB0004F322F25000000005E520108C0030020B5
:101AC0004A03002010180020540000204803002082
:101AD0004C0200205402002050020020EC000020A4
:101AE000CDCC0C40C1030020CDCC4C3F0000A44223
:101AF0005B4F4B5D000000005B4552525D000000F3
:101B0000463E010844030020400300203C0300201F
:101B10003A030020E8AFB7E794A8E9A39FE68C87D3
:101B2000210000003E030020460300204203002065
:101B3000120000201802002038B552480078002812
:101B400051D051A20D21002002F0D0FB122253A14E
:101B50005748006806F0E8FC5648574B04220168D5
:101B60005348006806F0C4FF5248534B04220169F1
:101B70004F48006806F0BCFF4E484F4B0422016AF4
:101B80004B48006806F0B4FF4A484B4B0422016BF7
:101B90004748006806F0ACFF4648474B0422016CFA
:101BA0004348006806F0A4FF4248434B0422016DFD
:101BB0003F48006806F09CFF3E483F4B0422016E00
:101BC0003B48006806F094FF3A483B4B0422016F03
:101BD0003748006806F08CFF2A49087034480068CE
:101BE00006F0C0F839E035A002F0E4FAC0F1800058
:101BF000C0F34F0431A22321204602F077FB0220DC
:101C000002F0EAFA0420314C00902488A3B2304C50
:101C10002488A2B22F4C2488A1B22F4C2488A0B2D1
:101C200002F0A0FA012002F0D7FA0A2302222B497F
:101C3000294801F02BFB0A2302222949254801F0FB
:101C400025FB0A2302222749214801F01FFB082314
:101C5000042225491D4801F019FB24480078022878
:101C60000ED10120074908706FF009001A49088059
:101C7000184908808C201649088050201349088094
:101C800038BD0000C6010020436F6E6669672049B9
:101C90007320536176696E672E2E2E00313A2F48DD
:101CA00075676F55495341562E74787400000000D3
:101CB00094030020A4020020A00300205361766555
:101CC000642053756363657373210000D4010020A1
:101CD000D0010020CC010020C8010020CA01002052
:101CE000CE010020D2010020D601002012000020E9
:101CF00008B51E481E490090098888B23223282260
:101D0000002102F07DFA022002F066FA19A20D21EC
:101D1000322002F0EBFA1AA21A21322002F0E6FA7F
:101D20001AA22721322002F0E1FA1BA2342132202C
:101D300002F0DCFA00200D231F2203210090612015
:101D400002F010FA012002F047FA08230422154994
:101D5000074801F09BFA14480078022805D150206A
:101D60000349088080201149088008BDAC4D010856
:101D7000320300204C6974746C652D456D6D6100F3
:101D800053572D56657220312E34000020506F7746
:101D900065722062790000002040446F67655465D9
:101DA000616D0000340300201200002018020020A2
:101DB00010B52DED028B82B07AA20D21002002F029
:101DC00095FA7A48007840B97948007828B979A21C
:101DD0000D21642002F08AFA16E077A20D2164201A
:101DE00002F084FA754802F001FA75A002F0E2F9F7
:101DF000C0F18000C0F34F0471A23021204602F0F0
:101E000083FA744802F0F2F96848007801280AD190
:101E100001F0DAFE65490870084601786EA003F00B
:101E200045F902F0D1F962480078012817D1002461
:101E30000AE008F089FF5E490870601C84B242F233
:101E40001070844200DD03E0594800780028F0D18A
:101E500000BF5748017864A003F028F900BF674825
:101E60000078002849D051480078002845D15048D2
:101E70000078002841D161490870614A614962488F
:101E800008F056FE60480068FEF7E9FD41EC180BCB
:101E900053EC182B5DA003F009F95A480068FEF7CF
:101EA000DEFD41EC180B53EC182B5CA003F0FEF8A0
:101EB00053480068FEF7D3FD41EC180B53EC182B88
:101EC0005AA003F0F3F8504890ED000AF2EE040A2D
:101ED000B4EEE00AF1EE10FA08DC90ED000AFAEE3A
:101EE000040AB4EEE00AF1EE10FA03D2542053498A
:101EF000088002E000205149088002231A46414828
:101F000090ED000A0D21322002F08EF902231A46CC
:101F10003B4890ED000A1A21322002F085F9022395
:101F20001A46394890ED000A1A21002002F07CF987
:101F3000022002F051F94248008882B22023002199
:101F4000084602F0DFF820213D48B0F900001828CB
:101F500004DD3B48B0F90000183002E03848B0F921
:101F6000000000B22023CDE900013548B0F900207F
:101F70000021B0F9000002F009F9012002F02CF96B
:101F8000082304222D492E4801F080F92D480078BD
:101F9000022802D100202C49088002B0BDEC028B3F
:101FA00010BD0000494D553A000000002C030020F0
:101FB0002D0300204F4B00004552520070090108CC
:101FC000E8AFB7E7AD89496E6974E5AE8CE68890F5
:101FD00000000000E30301084D50555F496E69742D
:101FE000203D2025640D0A006D70755F646D705F83
:101FF000496E6974203D2025640D0A0044000020CC
:102000006C02002068020020640200207069746382
:1020100068203D20252E316620000000726F6C6C18
:10202000203D20252E3166200000000079617720B8
:102030003D20252E31660D0A0000000030030020EF
:102040002E030020120000201802002008B51248BC
:1020500000681421B0FBF1F201FB120038B90F48FF
:102060000078401C0D4908700DA003F01FF80B48C4
:102070000078052802DD0020084908700A48074951
:10208000097800EBC11020231A461021009030205F
:1020900002F0B6F808BD0000340000205003002014
:1020A0006F6B210D0A000000A64E010800BFFEE77D
:1020B0002DE9F843FE480068007800284BD0FD4821
:1020C0000068007918B1FA48406A0078D8B1062350
:1020D0000422F8480168203100681E3001F0D6F86B
:1020E00006230422F449F54801F0D0F8042308221D
:1020F000F349F44801F0CAF805230322F249F348F2
:1021000001F0C4F864E0EB480068007901285FD171
:102110000423EF480278E748016818310068163058
:1021200001F0B4F804230822E349E44801F0AEF8D2
:102130000A230822E749E84801F0A8F80623042208
:10214000E649E74801F0A2F805230422E549E648FC
:1021500001F09CF83CE0D7480068007918B1D448F9
:10216000406A0078D0B1D3480068008CD149096832
:10217000C883D148B0F90000D0490880D048B0F9F0
:102180000000D0490880D048B0F90000CF4908804D
:10219000D648B0F90000D649088019E0C548006863
:1021A0000079012814D1C3480068008BC14909682F
:1021B000C882C148B0F90000C0490880C548B0F9DC
:1021C0000000C5490880C548B0F90000C44908802E
:1021D00001F090FFB7480068007920B1B448406A28
:1021E000007800286FD0B3480068B0F91660B14895
:1021F0000068846848E1AF480068408B0C30A179E2
:1022000001EB810202EBC1010844AA490968C98BAC
:10221000084405B22079082873D2DFE800F004C929
:10222000125679785520A9B2B21C90B2B1A202F030
:102230005DF8A9B206F10B0398B2A26902F056F854
:10224000C4E0A9B2B21C90B2ABA202F04FF8A9B29E
:1022500006F10C0398B2A26902F048F8B6E0A9B200
:10226000B21C90B2A3A202F041F8A9B206F10B038E
:1022700098B2A26902F03AF8606A0078012805D1A4
:10228000A81C81B29DA26E2002F030F8A5F10900D1
:1022900081B20A231A466C2001F044FFA0799849C4
:1022A000B1F9001088420DD1022001F095FFA5F18F
:1022B0000A0081B20C231A466B2001F023FF012093
:1022C00001F08AFF82E0A5E200BFA9B2B21C90B281
:1022D00088A202F00BF8A9B206F10B0398B2A2692A
:1022E00002F004F8636A1B78012B01D185A300E09A
:1022F00085A31A46A9B2636A1B78012B02D16B230E
:1023000001E055E06423184601F0F0FF5EE000BFF5
:10231000A9B2B21C90B277A201F0E8FFA9B206F10F
:102320000B0398B2A26901F0E1FFE26AD2ED000A64
:10233000B0EE600AA9B2D2ED000AF5EEC00AF1EEE5
:1023400010FA01D24F2200E05D22104602231A4605
:1023500001F06AFFA0796A49B1F90010884226D1DC
:102360006A48007818B3022001F036FFE36A93ED63
:10237000000AB5EEC00AF1EE10FA01D22A2300E0FD
:102380001C231A46A5F10A0399B2E36A93ED000AE9
:10239000B5EEC00AF1EE10FA01D24F2300E05D2342
:1023A00018460B2301F0AEFE012001F015FF0DE0F1
:1023B000A9B2B21C90B24FA201F098FFA9B206F1E7
:1023C0000B0398B2A26901F091FF00BF00BFA07992
:1023D00000EBD0714910A0EB410151BB35480068BA
:1023E000407D402191FBF0F032490968B1F91A10A3
:1023F000A27902FB001087B22E480068407D402180
:1024000091FBF0F12B480068B0F91A0002FB0100C3
:102410001FFA80F827490968C98A7F318AB225499D
:102420000968C98A7D3188B23B46414601F08AFE7F
:1024300029E020480068407D402191FBF0F01D49D3
:102440000968B1F91A10A27902FB001087B2194885
:102450000068407D402191FBF0F116480068B0F91A
:102460001A0002FB01001FFA80F812490968C98AA4
:102470007E318AB20F490968C98A7D3188B23B46EC
:10248000414601F05FFE2468A0790A490968497D48
:10249000884207DC94F8300006490968097D8842C3
:1024A0003FF4A9AE022001F097FE0020054B2FE07B
:1024B0007C020020F40100200A0200200802002013
:1024C0001202002010020020160200201402002038
:1024D0001C0200200E0200200C0200201A02002024
:1024E00018020020280200202602002024020020DA
:1024F000220200202D0000002B0000002A00000016
:10250000020200204F6E00004F66660007020020A6
:1025100000901B885B1D9AB2F74B1B685B8BF74CD6
:102520002488234499B2F44B1B68DB8A98B20F23AA
:1025300001F018FE012001F04FFEEF480068408BCB
:102540003F3083B2EC480068408B81B27E22104657
:1025500001F0F8FDE8480068407D402191FBF0F073
:1025600084B2E54A1268528BE54B1B881A4491B23B
:10257000E14A1268D28A7D3290B22346032201F0EA
:10258000C1FDE048B0F9000006287DD2DFE800F088
:1025900003195DA3E9FEDC490968886901F00AFEB8
:1025A000C01D00B2D9490880D3480068407D402151
:1025B00091FBF0F0D6490988484300B2D54908801C
:1025C00026E1D348B0F90000042807DBCA480068B8
:1025D000008C0D3800B2C84909680884CC480088CE
:1025E00018B90020C44909680884C948B0F9000036
:1025F000042805DAC84800880D3000B2C6490880B2
:10260000C348008810B90020C3490880C248008828
:102610001A3800B2B9490880BB490968886901F0D5
:10262000C9FDC01D00B2B9490880B3480068407DAB
:10263000402191FBF0F0B6490988484300B2B54902
:1026400008800020AF490880E2E0B348008850B914
:10265000AF480088404200EB800101EBC00000B2AF
:10266000A54909680884AA48008818B90020A24929
:1026700009680884A84800881A3000B29F49088079
:10268000A54800880D3800E0C1E000B2A2490880EA
:102690000846B0F90000002801DC002008809A49B3
:1026A0000968886901F086FDC01D00B2974908805D
:1026B00091480068407D402191FBF0F094490988E1
:1026C000484300B2934908800120944908700020D3
:1026D0008C4908809CE00020874909688883322063
:1026E00085490968488300208D49088080208349F6
:1026F000088040208249088004208249088084495B
:10270000B1F90000C11700EB91718910A0EB8101B4
:10271000491EF1B178480068B0F920000D2190FB06
:10272000F1F07B49B1F90010C1F10101884208D1F3
:1027300071480068008C0D3800B26F490968088440
:1027400007E06D480068008C343800B26A490968B7
:1027500008846F48008818B9002067490968088410
:1027600056E005230422644801681C3100681A30D1
:1027700000F08CFD28B96B48007840F0F000694902
:10278000087008231A466848016800E016E01C310A
:1027900000681A3000F07AFD28B96248007840F0ED
:1027A0000F00604908705F480078FF2805D10020BD
:1027B0005C49087005205349088029E05449B1F963
:1027C0000000C11700EB91718910A0EB810101EBB2
:1027D000810202EBC10109B24F4A11804A490968DE
:1027E000886901F0E7FCC01D00B2484908804248F2
:1027F0000068407D402191FBF0F04549098848433D
:1028000000B24449088000203E49088000E000BF33
:1028100000BF72E138480068B0F91A5036480068C5
:10282000846813E034480068B0F916003030A179AC
:102830003B4A128812FB010006B22069A9B200903F
:10284000B0B220231A4601F0DBFC2468A0792A49A3
:102850000968497D884206DC94F8300026490968F9
:10286000097D8842DED0314801F0C0FC2649096864
:10287000886901F09FFCC0F18000C0F34F0422483A
:10288000006882692A48B0F90000C0F10D0305F123
:102890003600184481B2204601F028FD254801F099
:1028A000A5FC022001F098FC0020134A0090126859
:1028B000528B91B2204A1288303290B220231A46AD
:1028C00001F050FC1A48008882B20B480068408B27
:1028D000243081B21823002001F014FC012001F003
:1028E0007BFC0848B0F9000006287DD2DFE800F044
:1028F00003264B66AED9FEE0F4010020080200205A
:102900001402002004020020FC010020120200201A
:1029100002020020160200200A0200202C020020E1
:102920001802002006020020F8010020463E01089F
:1029300026020020E30301080C020020FB48008867
:1029400000EB40000001404200B2F94909680883E9
:10295000F8480088183800B2F64908806FF0030084
:10296000F5490880F148008830B91020F349087013
:102970000020F349088002E00C20F0490870002094
:10298000F0490880B7E0E948008800EB400000010A
:10299000404200B2E64909680883E448008828B14B
:1029A000E4480088183000B2E24908806FF0030064
:1029B000E14908800020E34908809CE00020DC49D0
:1029C000096888833220DA49096848838020DE4913
:1029D00008804020DD4908800420DA490880002072
:1029E000D7490880D14900E084E0B1F90000C1175F
:1029F00000EB91718910A0EB8101491EF1B1CC4827
:102A00000068B0F920000D2190FBF1F0C749B1F941
:102A10000010C1F10101884208D1C5480068008C4E
:102A20000D3800B2C2490968088407E0C048006850
:102A3000008C343800B2BE4909680884BB4800885D
:102A400018B90020BA490968088454E00523042213
:102A5000B74801681C3100681A3000F017FC28B92B
:102A6000BB48007840F0F000B949087008231A46C6
:102A7000B84801681C3100681A3000F007FC28B91A
:102A8000B348007840F00F00B1490870B0480078B2
:102A9000FF2805D10020AE4908700520A94908800B
:102AA00029E0A249B1F90000C11700EB917189102A
:102AB000A0EB810101EB810202EBC10109B2A64A40
:102AC0001180A6490968886901F074FBC01D00B235
:102AD000A349088096480068407D402191FBF0F0B2
:102AE00092490988484300B29E49088000209549D0
:102AF000088000E000BF00BF00BF9B4800780228AC
:102B000060D19A480078E8B394490968C86A06F029
:102B100067F9974901EB001090ED030A8F480068B0
:102B2000C06AD0ED000A30EE200A8C480068C06A06
:102B300080ED000A89490968C86A06F051F98C4994
:102B400001EB001090ED020A84480068C06AD0EDE5
:102B5000000AB4EEE00AF1EE10FA0ED87F490968D7
:102B6000C86A06F03DF9824901EB001090ED020AB7
:102B70007A480068C06A80ED000A78480068406BB7
:102B8000002800E005E003D074490968486B8047DD
:102B900037E166480088401C00B264490880012083
:102BA0006849088062480068C06880795F49B1F967
:102BB0000010884202DA00205C4908806DA002F013
:102BC00075FA1EE16848007801285CD167480078F2
:102BD000F0B362490968C86A06F002F9644901EB7A
:102BE000001090ED030A5D480068C06AD0ED000A4D
:102BF00030EEC00A59480068C06A80ED000A5749A3
:102C00000968C86A06F0ECF8594901EB001090ED2C
:102C1000010A52480068C06AD0ED000AB4EEE00A2A
:102C2000F1EE10FA0EDB4D490968C86A06F0D8F8D3
:102C30004F4901EB001090ED010A48480068C06A56
:102C400080ED000A45480068406B002805D000E090
:102C500004E042490968486B8047D2E03348008865
:102C6000401E00B2314908800220364908802F48B2
:102C7000B0F90000012802DA00202C49088041A0A8
:102C800002F014FABDE04348007801284CD13348E3
:102C900000680079082848D2DFE800F08B1804317A
:102CA000828B8B1C0320274908802C48006890F8F1
:102CB0003100394908802948006890F832001B49E2
:102CC00008801B4800682349086073E001203349ED
:102CD00008706FE021480068406A007808B9012058
:102CE00000E000201D490968496A08701B48006817
:102CF000406B18B119490968486B80475AE017487A
:102D00000068406A007808B9012000E000201349FB
:102D10000968496A087011480068406B18B10F498A
:102D20000968486B804745E049E042E00202002024
:102D3000F40100200C020020260200201C020020CA
:102D400018020020040200200802002014020020C3
:102D500006020020F80100200A020020FC010020E9
:102D600012020020160200202B0200200702002081
:102D7000A4020020456E6F63646572D5FDD7AA0D6D
:102D80000A000000456E6F63646572B7B4D7AA0D80
:102D90000A0000002A020020000200203002002069
:102DA0001A48007808B9012000E00020174908708F
:102DB00000E000BF00BF16A002F078F921E017483C
:102DC000007802281DD116480068B8B103201549C3
:102DD000088013480068007D1349088000201349CB
:102DE00008800F49096808840D490968088310485C
:102DF00000680B4908600020044908700DA002F02B
:102E000055F901F0E1F9BDE8F88300000702002060
:102E10004B6579B5A5BBF70D0A0000002A0200201A
:102E2000F80100200402002000020020020200201D
:102E3000F40100204B6579B3A4B0B40D0A00000082
:102E40002DE9F84FA2A10120FEF7B6F80446A3A190
:102E50000020FEF7B1F80546A3A10020FEF7ACF86C
:102E60000646A3A10020FEF7A7F8074602229CA170
:102E70002046636A984795F814900021D0F83CA04A
:102E80004846D047D0F838809D48C0479D4B012226
:102E90009DA12046D4F824C0E047D0F838809D4852
:102EA000C04702229CA12046636A984797F8149075
:102EB0000021D0F83CA04846D047D0F83880994847
:102EC000C04700200090984B072298A12046D4F8D4
:102ED00024C0E047D0F838809648C047964B01227E
:102EE00096A12046D4F824C0E047D0F83880954811
:102EF000C04700200090944B072294A12046D4F8AC
:102F000024C0E047D0F838809348C047934B012253
:102F100093A12046D4F824C0E047D0F838809348E5
:102F2000C047002292A12046636A9847D0F83880B3
:102F30009148C047914B012291A12046D4F824C06A
:102F4000E047D0F838808F48C0478F4B01228FA1CF
:102F50002046D4F824C0E047D0F838808D48C047D8
:102F600000225FA128466B6A984702228AA1284660
:102F70006B6A984796F814800021D0F83C90404640
:102F8000C84700200090874B032287A12846D5F828
:102F900024C0E04787480090874B042287A1284639
:102FA000D5F824C0E04788480090884B032288A1C8
:102FB0002846D5F824C0E04700200090874B032224
:102FC00087A12846D5F824C0E04788480090884B60
:102FD000042288A12846D5F824C0E047884B012266
:102FE00088A12846D5F824C0E047022287A12846B8
:102FF0006B6A984794F814800021D0F83C904046C2
:10300000C847002244A138467B6A984700200090B8
:10301000804B042280A13846D7F824C0E047002026
:103020000090804B042280A13846D7F824C0E047A6
:10303000002000907F4B04227FA13846D7F824C09F
:10304000E047022271A138467B6A984794F81480C1
:103050000221D0F83C904046C84700224EA130469D
:10306000736A984700200090764B042276A1304680
:10307000D6F824C0E04700200090754B042275A1CB
:103080003046D6F824C0E04700200090734B04225D
:1030900073A13046D6F824C0E04702225BA1304637
:1030A000736A984795F814800121D0F83C90404607
:1030B000C847002008F0DCFE804641466AA001F0C7
:1030C000F5FF617D6DA001F0F1FFBDE8F88F000014
:1030D000706167654D61696E000000007061676531
:1030E00053657474696E6700706167655049440088
:1030F0007061676553706F3248527374000000004E
:10310000AC470108E11600084F78696D6574657277
:1031100000000000AC4B010853706F322648527318
:1031200074000000AC4901083602002044564121D9
:1031300000000000AC480108B11D00084779726F1B
:10314000000000002C480108380200204368656335
:103150006B626F78330000002C4901088914000865
:103160004375746567686F73740000002C4A01082A
:10317000556E69636F726E002C4C01084D2000087B
:103180003F3F3F002C4D0108F11C000841626F7564
:1031900074000000AC4C0108504944204564697437
:1031A0006F72000034020020536D6F6F7468416EBF
:1031B000696D0000C14000085C0200204C6967682E
:1031C000744C6576656C0000591400083C020020C0
:1031D00042656570456E61626C6500003D020020CD
:1031E00050616765324C6973740000006D1400080B
:1031F00058020020566F6C756D65204374726C0028
:10320000391B000853617665416C6C004578697420
:10321000000000004C02002053706F324D696E5662
:10322000616C00005002002048524D617856616C7C
:10323000000000005402002048524D696E56616C37
:1032400000000000400200205049445F4B70000025
:10325000440200205049445F4B69000048020020AE
:103260005049445F4B640000C4DAB4E6D5BCD3C314
:10327000C7E9BFF6A3BA25640D0A00006974656D3D
:103280004D61783A25640D0A00000000F0B504464F
:10329000B4F90000B1F90050A84201D10020F0BDFE
:1032A000B4F90000B1F90050A84214DAB1F9006095
:1032B000B4F90070F01B002801DB064600E046422E
:1032C0009E4201DD164600E001263546208828444E
:1032D00000B220801AE0B4F90000B1F90050A84211
:1032E00014DDB1F90060B4F90070F01B002801DBB7
:1032F000064600E046429E4201DD164600E00126F9
:1033000035462088401B00B2208000BF0120C6E760
:1033100010B538480078384908703848007838497E
:10332000087038480068007D3749B1F900108842BC
:1033300017D0364800683349086004E03148006817
:103340000068304908602F480068007D2E49B1F9B7
:1033500000108842F2D12B480068017D2CA001F0BA
:10336000A5FE2E48006880792D49B1F900108842E9
:1033700008D12A48006890F830002349B1F90010BC
:10338000884218D01F48006880682449086004E01B
:103390002248006800682149086020480068807958
:1033A0001F49B1F900108842F2D11C4800688179A8
:1033B0001CA001F07BFE1F480078B8B100F09AFE17
:1033C00016480068406B20B114490968486B804773
:1033D00002E000201749087007480078022802D14F
:1033E00000201449087000F0EFFE01E0FEF760FED7
:1033F00010BD0000120000202A020020130000204F
:103400002B020020F401002000020020E401002033
:103410007061676569643A25640D0A00FC0100204B
:10342000020200206974656D6C69643A25640D0AB6
:10343000000000003002002070B504460D4600BFB9
:1034400040F20161264806F008FD0028F8D1244822
:1034500006F02AFD00BF4FF4A061214806F0FDFCF4
:103460000028F8D06FF0010278211D4806F004FD15
:1034700000BF40F201511A4806F0EFFC0028F8D0D6
:1034800040F20151164806F0D4FC00BF40F207514B
:10349000134806F0E2FC0128F8D12146104806F056
:1034A0009FFC00BF40F202510D4806F0D6FC0028F8
:1034B000F8D029460A4806F093FC00BF40F20251BA
:1034C000074806F0CAFC0028F8D0054806F0F1FCD1
:1034D00000BF0348006800F400700028F9D170BDF7
:1034E0000054004010B5002000F0D4FC012000F092
:1034F000BDFC002000F0BAFC10BD10B5002000F0AB
:10350000ABF8012000F092F8002000F08FF810BD19
:1035100010B540F2036009F0A5F80123042214213C
:10352000074806F078FA022304221421044806F022
:1035300072FA012000F09AFC012000F0ABFC10BDF3
:10354000000C014010B540F2036009F08BF84FF415
:10355000806303221421084806F05DFA4FF40063EB
:1035600003221421044806F056FA012000F05EF808
:10357000012000F071F810BD000C014010B50120D1
:1035800000F088FC012000F071FC002000F06EFCCF
:1035900010BD10B5012000F05FF8012000F046F8E2
:1035A000002000F043F810BD70B50546002601204C
:1035B00000F070FC00240EE0012000F057FC00F049
:1035C00047FC012802D1802020410643002000F062
:1035D0004DFC601CC4B2082CEEDB15B9FFF7CEFF22
:1035E00001E0FFF77FFF304670BD70B5054600264D
:1035F000012000F031F800240EE0012000F016F860
:1036000000F098FE012802D18020204106430020CE
:1036100000F00CF8601CC4B2082CEEDB15B9FFF703
:10362000B8FF01E0FFF769FF304670BD10B50446F2
:103630002CB101229102074806F0E8F905E00022CA
:103640004FF48061034806F0E1F9052003F0C6F964
:1036500010BD0000000C014010B504462CB1012241
:10366000D102074806F0D2F905E000224FF40061CC
:10367000034806F0CBF9052003F0B0F910BD0000B7
:10368000000C014070B5054600240DE08021214169
:1036900001EA050000F0FEFB012000F0E7FB00203E
:1036A00000F0E4FB601CC4B2082CEFDB70BD70B509
:1036B000054600240DE08021214101EA0500FFF7C5
:1036C000CBFF0120FFF7B2FF0020FFF7AFFF601C28
:1036D000C4B2082CEFDB70BD10B5012000F0DAFB9E
:1036E000012000F0C3FB002000F0D4FB002000F01C
:1036F000BDFB10BD10B50120FFF7AEFF0120FFF7A5
:1037000095FF0020FFF7A8FF0020FFF78FFF10BDF7
:1037100010B5002000F0BEFB012000F0A7FB012047
:1037200000F0B8FB10BD10B50020FFF795FF012099
:10373000FFF77CFF0120FFF78FFF10BD10B50120C0
:1037400000F0A8FB012000F091FB00F081FB044693
:10375000002000F08BFB204610BD10B50120FFF7C4
:103760007BFF0120FFF762FF00F0E4FD044600202C
:10377000FFF75CFF204610BD30B50B4600240480E7
:1037800044808280C4808360002104E00024856836
:103790006C544C1C21B29142F8DB30BD10B504468C
:1037A00000F004F82046FDF727FD10BD10B50024F9
:1037B00006E000200949085509490855601C04B273
:1037C000642CF6DB642205490648FFF7D5FF642226
:1037D00003490548FFF7D0FF10BD00004428002032
:1037E000A82800202C2800203828002010B51048D8
:1037F00004780078012802D10E48FDF757FC0C48E8
:103800000078022802D10C48FDF750FC01210B483A
:1038100006F05FF918B9002000F0BAF802E00120C4
:1038200000F0B6F8002002490870204610BD0000E4
:10383000280000205C0000206C00002000080140EF
:1038400010B500240121034806F043F900B9012412
:10385000204610BD0008014010B540F2026008F09B
:1038600001FF012303224821054806F0D4F801F0A6
:10387000FFF80120034988710020C87110BD0000C5
:10388000000801402A00002010B53D4800783D495D
:103890000870FFF7D5FF3A4908703A48007848B9F0
:1038A00008460078012805D13748807910B10020FA
:1038B0003549088033480078012810D13048007815
:1038C00001280CD130480088B0F57A7F07DC2E48FB
:1038D000807920B12C48008814302B490880294871
:1038E000007801280DD128480088B0F57A7F08DDDE
:1038F0002548807928B1022024490870C92022492E
:10390000088020480078012827D11D48007820BB76
:103910001D480088C82820DC1B48C07910B9012048
:103920001A4908701848C079012816D1164800793C
:1039300028B9012014490871002048800DE0124880
:103940000079012809D110484088C82805DC0320E7
:103950000E49087000200C4908710B48007970B1BD
:103960000948408814300849488008464088C828DB
:1039700005DD01200549087000200349087110BDCC
:1039800038000020390000202A00002028000020F4
:1039900010B504462CB101225103054806F036F853
:1039A00005E000224FF40051014806F02FF810BD49
:1039B0000010014010B540F2046008F053FE4FF4CF
:1039C000005303221021044806F025F84FF400515B
:1039D000014806F019F810BD00100140FEB505467B
:1039E0000E4614465E48007800287DD000205C49D1
:1039F0000870204606F041FC94ED000AB8EE400A3B
:103A0000584880ED000A584906F094FA5749206852
:103A100088426AD960688842FBD95549554A12885C
:103A2000206841F822005449524A1288606841F8DF
:103A30002200012051490870514890ED000AB8EE6B
:103A4000400A4948D0ED000AB4EEE00AF1EE10FA5F
:103A500006DD01204B4908700020494908600AE052
:103A6000002048490870404890ED000ABCEEC00AAA
:103A7000434880ED000A44A0216801F017FB444848
:103A8000016844A001F012FB3A480088401C394903
:103A900008800846018843A001F008FB35480088EB
:103AA000B0F5FA7F59DB41484149424A424BCDE9E2
:103AB00000210290304A4FF4FA712D4806F084FC40
:103AC0003A480078012811D13A48007801280DD1F0
:103AD000394800683060364800682860326837A08E
:103AE000296801F0E3FA04E037E02CE000203060C0
:103AF00028606420334908801AE01D48314909884C
:103B000050F821102F4800886438194A42F82010D4
:103B100019482C49098850F821102A48008864382F
:103B2000154A42F8201027480088401C2549088083
:103B300024480088B0F5FA7FDFDB4FF4C8700D49E8
:103B400008800120FEBD0020306028604FF4C8705E
:103B5000084908800020094908700020F2E70000A9
:103B600040000020C4030020C8030020A0860100FC
:103B7000AC0B002010000020DC030020C10300205B
:103B8000BC030020C0030020402564230000000087
:103B90003C00002054696D655F6D733A25640D0A21
:103BA000000000002B2B256420202000B4030020FF
:103BB000B0030020AC030020A80300202425642CBF
:103BC00025645E00C203002010B5FFF7A1FC802130
:103BD0006B2000F0E8F8642002F0F2FE00216B2078
:103BE00000F0E1F8032000F09CF8002000F091F8CC
:103BF000322000F0BBF80021382000F0D4F800217A
:103C00006A2000F0D0F80021232000F0CCF88021B9
:103C1000372000F0C8F8752000F024F8044621464B
:103C20000AA001F043FA682C0BD101216B2000F0AF
:103C3000BAF800216C2000F0B6F8322000F096F8B7
:103C400001E0012010BD0020FCE700004D50555F51
:103C5000414444523A3058363820207265733A2530
:103C6000640D0A0070B50446FFF736FDD020FFF75B
:103C700009FDFFF763FD2046FFF704FDFFF75EFD3A
:103C8000FFF72AFDD120FFF7FDFCFFF757FD0020CD
:103C9000FFF78AFC0546FFF73BFD284670BD2DE97E
:103CA000F04106460F4614461D46FFF715FD00215C
:103CB00041EA4601C8B2FFF7E5FCFFF73FFD20B13E
:103CC000FFF726FD0120BDE8F0813846FFF7DAFC5A
:103CD000FFF734FDFFF700FD012101EB4601C8B2FB
:103CE000FFF7D0FCFFF72AFD0DE0012C04D10020E6
:103CF000FFF75AFC287003E00120FFF755FC2870FD
:103D0000601EC4B26D1C002CEFD1FFF701FD002036
:103D1000D9E710B50446E006010E1C2000F043F878
:103D200010BD10B50446E006010E1B2000F03BF864
:103D300010BD70B504460025BC2C01DB012510E048
:103D4000622C01DB02250CE02A2C01DB032508E0B4
:103D5000142C01DB042504E00A2C01DB052500E01E
:103D6000062529461A2000F01EF870BD70B50446DD
:103D7000B4F57A7F01DD4FF47A74042C00DA042460
:103D80004FF47A7090FBF4F0401EC5B2294619201A
:103D900000F009F80546264604EBD671C1F34F0042
:103DA000FFF7C7FF70BD70B505460C46FFF794FCE2
:103DB000D020FFF767FCFFF7C1FC18B1FFF7A8FCA4
:103DC000012070BD2846FFF75DFCFFF7B7FC2046D9
:103DD000FFF758FCFFF7B2FC18B1FFF799FC012080
:103DE000EFE7FFF795FC0020EBE72DE9F0410546F2
:103DF0000E4617469846FFF76FFC002141EA450141
:103E0000C8B2FFF73FFCFFF799FC20B1FFF780FC39
:103E10000120BDE8F0813046FFF734FCFFF78EFC4F
:103E200000240CE018F80400FFF72CFCFFF786FCD8
:103E300018B1FFF76DFC0120EBE7601CC4B2BC4277
:103E4000F0DBFFF765FC0020E3E700BFFEE70000C2
:103E500010B50221044805F03CFE0446052002F09E
:103E6000BDFD204610BD0000000C014010B5044609
:103E70002CB101221146064805F0C8FD04E00022DD
:103E80000121034805F0C2FD052002F0A7FD10BD89
:103E9000000C014010B504462CB101220221064855
:103EA00005F0B4FD04E000220221034805F0AEFD58
:103EB000052002F093FD10BD000C014000B587B055
:103EC00040F20E7008F0CEFB4FF46043032218213D
:103ED0000D4805F0A0FD032005904FF4827000907E
:103EE0000020049002904FF4007003903820069058
:103EF000002001906946054808F0C3FC034808F01B
:103F0000ADFC07B000BD0000000C014000380040CF
:103F10007047000010B5002807DA0A07140E054A9A
:103F200000F00F031B1FD45403E00A07130E024ACC
:103F3000135410BD18ED00E000E400E070B500245B
:103F40000CE0002506E00020074901EBC5010855FB
:103F5000681CC5B2802DF6DB601CC4B2082CF0DBF7
:103F600000F08CF870BD00001014002010B540F275
:103F7000036008F077FB40F2157008F073FB4FF414
:103F8000C06008F06FFB0121022005F0ABFD4FF48B
:103F9000407303221C21364805F03DFD354805F0ED
:103FA00023FF00223449334805F07AFE77230022AC
:103FB0001146304805F06AFF2E4805F035FF4FF4F2
:103FC00080612C4805F064FEC82002F0E3FCAE20BE
:103FD00001F052F8002001F04FF8102001F04CF8E9
:103FE000402001F049F8812001F046F8CF2001F08F
:103FF00043F8A12001F040F8C82001F03DF8A620C8
:1040000001F03AF8A82001F037F83F2001F034F829
:10401000D32001F031F8002001F02EF8D52001F076
:104020002BF8802001F028F8D92001F025F8F120A4
:1040300001F022F8DA2001F01FF8122001F01CF83C
:10404000DB2001F019F8302001F016F8202001F0F3
:1040500013F8022001F010F88D2001F00DF8142063
:1040600001F00AF8FFF76AFFAF2001F005F810BD74
:10407000000C01400054004040420F0070B5002485
:1040800018E004F1B001C8B200F0F6FF002000F023
:10409000F3FF102000F0F0FF002507E0074901EBD7
:1040A000C501085D00F0EFFF681CC5B2802DF5DB8F
:1040B000601CC4B2082CE4DB70BD000010140020AA
:1040C00010B5812208A1094809F084FC084800685D
:1040D00090ED000ABCEEC00A10EE100AC2B202A1B6
:1040E000024809F077FC10BD630000007C1300203B
:1040F000A402002010B5024809F0C2F810BD00006B
:104100007C130020F8B504460D4616461F4633467C
:104110002A4621460248009709F0C8F8F8BD000079
:104120007C130020F8B504460D4616461F4633465C
:104130002A4621460248009709F000F9F8BD000020
:104140007C130020F8B504460D4616461F4633463C
:104150002A4621460248009709F02FFAF8BD0000D0
:104160007C1300202DE9FC4104460D4616461F46EF
:10417000DDF8208033462A4621460348CDE9007801
:1041800009F0B4FABDE8FC817C1300202DE9FE4360
:1041900004460D4616461F46DDE90A8933462A467F
:1041A000214603488DE8800309F052FBBDE8FE83F9
:1041B0007C13002010B504462146024809F0D8FBC4
:1041C00010BD00007C13002010B5024809F0F9FB77
:1041D00010BD00007C13002010B5044621460248A3
:1041E00009F007FC10BD00007C13002010B5044648
:1041F0002146024809F005FC10BD00007C13002098
:104200002DE9FC4104460D4616461F46DDF8208088
:1042100033462A4621460348CDE9007809F058FB89
:10422000BDE8FC817C130020F0B52DED048B83B03C
:1042300006460F46B0EE408A14461D46681C2044D0
:10424000C4B266202E21234614A2CDE900150290A7
:1042500013A1164800F03AFF18EE100AFCF7FFFB16
:1042600041EC190B53EC192B1049114800F02EFFAB
:1042700018EE100AFCF7F3FB41EC190B53EC192B69
:104280000CA10B4800F022FF094B3A4631460B487F
:1042900009F0CCFA03B0BDEC048BF0BD25000000A2
:1042A00025732564256325642563000014300020F0
:1042B0001E300020252E3266000000007C130020F6
:1042C00070B504460D461646324605A1054800F075
:1042D000FDFE044B2A462146034809F0A7FA70BDAB
:1042E000256400001E3000207C13002070B50446B9
:1042F0000D46164633462A462146024809F096FAEC
:1043000070BD00007C13002070B504460D461646B3
:1043100033462A462146024809F0BAFA70BD000029
:104320007C13002070470146C88808B901207047F7
:104330000020FCE710B54FF40061044805F0C9FB0C
:104340000446052002F04AFB204610BD000C014047
:1043500070B504460025012221460348FCF79CFF66
:10436000C5B2284670BD00002C28002010B50024DE
:10437000064808F0A3FDA0F5004004B24FF4004148
:10438000024808F09FFD204610BD000000080040D4
:1043900001490968C8687047E801002010B5044663
:1043A0002CB101224021054805F030FB04E0002239
:1043B0004021024805F02AFB10BD00000008014022
:1043C00010B50120FFF7EAFFFF2000F097F910BDBC
:1043D00070B5054601220021092000F0DDF90446F0
:1043E00024B91021284600F055F90446FFF7E8FFEC
:1043F0000CB1012070BD0020FCE770B505464FF6FA
:10440000FF7401E0601E84B2FF2000F077F9A8423B
:1044100001D0002CF6D10CB9FF2070BD0020FCE7C4
:104420007FB56846FFF7D4FF10B1002004B070BD1F
:104430009DF8000000F0C000402809D19DF8090057
:104440009DF8081000EB0120401C84B2A50220E07A
:104450009DF8050000F00F009DF80A1000EBD11048
:104460009DF8091001F0030100EB4100861C9DF846
:10447000080080119DF8071000EB81009DF80610E0
:1044800001F0030100EB8120441CA6F1090004FAAD
:1044900000F52846CAE70000F8B500F017F900F06B
:1044A0003CF9002504E0FF2000F028F9681C85B2E3
:1044B0000A2DF8DB142600BF95220021084600F0E3
:1044C0006BF90446012C04D0301EA6F101018EB216
:1044D000F2D1002051490870012C4AD187224FF4B3
:1044E000D571082000F058F9012847D1002506E0D1
:1044F000FF2000F003F90DF80500681C85B2042DBB
:10450000F6DB9DF80200012879D19DF80300AA2866
:1045100075D14FF6FE7600BF01220021372000F052
:104520003BF901229107292000F036F9044624B115
:10453000301EA6F101018EB2EED1002E5FD0012215
:1045400000213A2000F028F9002858D1002506E083
:10455000FF2000F0D3F80DF80500681C85B2042D8B
:10456000F6DB9DF8000000F0400018B106202B4952
:10457000087044E004202949087040E0012200212D
:10458000372000F009F901220021292000F004F968
:104590000446012C17DC0220204908704FF6FE76F5
:1045A00000BF01220021372000F0F6F8012200218F
:1045B000292000F0F1F80446BCB1301EA6F101013B
:1045C0008EB2EED111E00120144908704FF6FE764C
:1045D00000BF01220021104600F0DEF8044624B19D
:1045E000301EA6F101018EB2F3D12EB1012251028B
:1045F000102000F0D1F810B1002008490870FFF732
:10460000DFFE00F081F80548007808B10020F8BD11
:104610000CB12046FBE7AA20F9E70000C401002006
:104620002DE9F04106460F46154619480078062840
:1046300000D07F02012D0CD101223946112000F05B
:10464000ABF80446FCB96902304600F023F8044692
:1046500019E001223946122000F09EF8044600BFFE
:104660004FF40071304600F015F8044606F5007668
:10467000681EC0B2051E01D0002CF1D0012200211D
:104680000C2000F089F8FFF79BFE2046BDE8F08182
:10469000C401002070B504460D46FE20FFF7ADFEB4
:1046A00008B1012070BD04E0FF2000F00BF920707C
:1046B000641C281EA5F101018DB2F5D1FF2000F088
:1046C0001DF8FF2000F01AF80020EBE710B540F2CB
:1046D000026007F0C7FF402303221021064805F0BF
:1046E0009AF94021044805F08FF9FFF7E7FB012014
:1046F000FFF754FE10BD00000008014010B504464D
:10470000204600F0DFF810BD00B587B00820069005
:10471000684600F0F3F807B000BD00B587B0382058
:104720000690684600F0EAF807B000BD10B500201A
:10473000FFF734FE00F06CF808B9002010BDFFF759
:104740003FFE0120FAE770B506460D4600F060F81E
:1047500008B1012070BD2846FFF7D0FFFD2D19D00C
:10476000002404E0305D00F0ADF8601C84B2B4F5C4
:10477000007FF7DBFF20FFF7C1FFFF20FFF7BEFF41
:10478000FF20FFF7BBFF044604F01F00052801D0FF
:104790000220DFE70020DDE72DE9F04105460C4669
:1047A00017464FF00008FFF70BFEFFF7BFFF10B1F1
:1047B000FF20BDE8F08145F04000FFF79FFF200E8D
:1047C000FFF79CFFC4F30740FFF798FFC4F30720EF
:1047D000FFF794FFE0B2FFF791FF3846FFF78EFF37
:1047E0000C2D02D1FF20FFF789FF4FF01F0800BFFB
:1047F000FF20FFF783FF064606F0800030B1B8F1D6
:104800000000A8F1010101F0FF08F1D13046D0E726
:1048100010B5002400BFFF20FFF770FFFF2801D173
:10482000002010BD641C6FF07F408442F3D3012050
:10483000F7E700002DE9F04106460F4615462048EF
:104840000078062800D07F02012D0CD101223946C4
:104850001820FFF7A1FF04466CBBFE213046FFF78E
:1048600072FF044627E016480078012809D001228B
:1048700000213720FFF790FF012229461720FFF77C
:104880008BFF012239461920FFF786FF044694B9B1
:1048900000BFFC213046FFF756FF044606F50076C0
:1048A000681EC0B2051E01D0002CF2D0FD210020F0
:1048B000FFF749FF0446FFF783FD2046BDE8F0817E
:1048C000C401002010B5044600BF02210A4807F0C9
:1048D000D0FF0028F9D02146074807F0C8FF00BFE5
:1048E0000121054807F0C5FF0028F9D0024807F06C
:1048F000BAFFC0B210BD00000038004010B5044639
:10490000032060614FF48270206000202061A0606D
:104910004FF40070E060002060602146034807F01B
:10492000B0FF024807F09AFF10BD000000380040B9
:1049300070470000014604480068C06801620248F0
:104940000068C06870470000E80100200146044884
:104950000068C068016102480068C06870470000D4
:10496000E8010020024607480068C06880F831204E
:1049700004480068C06880F8321002480068C068C7
:1049800070470000E8010020014609B90020704787
:10499000DFED090AB0EE600A00EE901AF8EE600A48
:1049A0009FED061AC1EE201AB0EE610AFCEEC00AB5
:1049B00010EE900A80B2EAE7000000008096184BE3
:1049C00010B501F0F1FF10BD08B52648006840F4AD
:1049D0007000244908602448006840F00100224922
:1049E000086000BF2048006800F002000028F9D0ED
:1049F00000BF1D48406840F080001B49486000200F
:104A0000009002E00098401C009000985028F9D3D4
:104A10001548406840F0900013494860002000901D
:104A200002E00098401C009000985028F9D300BF85
:104A30000D48406820F003000B49486008460068B4
:104A40000A490840084908604FF41F00886008467A
:104A5000006820F48020086000204860C86208F0E8
:104A60008DF808BD88ED00E000100240FFFFF6FE63
:104A70001FB54FF4E06007F0F5FD4FF0804008F0FF
:104A800023FA7720ADF8000044F61F600290002062
:104A9000ADF80200ADF80400ADF806008DF80C008A
:104AA00069464FF0804008F08BFA0121880708F032
:104AB00083FA002211461C2007F02AFA01218807F8
:104AC00008F06DFB4FF0804008F071FA1FBD000048
:104AD00030B587B0044640F2017007F0C3FD2248AC
:104AE00008F0F2F903A808F099FB0020ADF80E00D9
:104AF000ADF81200ADF81000601E05900B20ADF867
:104B00000C0000208DF8180003A9174808F058FA87
:104B1000684608F0CBF90120ADF800000020ADF8A0
:104B20000400ADF80800ADF80A00ADF80600ADF8D5
:104B300002006A4600210C4808F082F86022002139
:104B4000094808F073F9254604EBD570421000219E
:104B5000054808F098F90121034808F033FB0248A2
:104B600008F020FA07B030BD000400407FB50546CC
:104B70000C4640F2037007F075FD124808F0A4F9E6
:104B80000020ADF80200ADF80600ADF80400029573
:104B9000ADF800408DF80C0069460A4808F010FA9C
:104BA0000121084808F008FA02221146322007F0D5
:104BB000AFF90121034808F0F2FA024808F0F7F9CA
:104BC0007FBD0000000C004010B50121880708F0EF
:104BD000EDFA50B10121880708F0E5FA03480068B2
:104BE000401C02490860FEF74FFE10BD3400002053
:104BF00010B50121174808F0D9FA012828D1012160
:104C0000144808F0D0FA14480068401C12490860A3
:104C100012480078401C11490870084600780A289C
:104C200005DB01200E49087000200C4908700D4872
:104C30000088401C0B490880084600880A2805DDCA
:104C4000012009490870002006490880FCF74EFA47
:104C500010BD0000000C00403C000020450000207A
:104C60004400002042000020400000206FF00100BE
:104C70000349086103480088401C024908807047C6
:104C800000100040D80100201FB540F2047007F06A
:104C9000E9FC0020ADF80200ADF80600ADF8040014
:104CA000134800684FF47A71B0FBF1F0B0FBF1F0FB
:104CB000401E02900020ADF800008DF80C006946FF
:104CC0000C4808F07DF901210A4808F075F9012126
:104CD000084808F064FA00220221362007F018F98B
:104CE0000448006820F00100024908601FBD000070
:104CF000240000200010004008B5002000901E494C
:104D00001E480AF066FA60B11B491C480AF054FAC2
:104D10001A480AF0D1F9C0B200909DF8000000F0E6
:104D2000B9F9174915480AF054FA012806D114496F
:104D300012480AF041FA11480AF0BEF911490F4829
:104D40000AF047FAB8B10F490C480AF035FA68463C
:104D5000FFF7FEFA9DF8001008480AF0B2F90A4879
:104D6000FFF7E1FA38B100200849087040F2073136
:104D700002480AF007FA08BD0503050000380140A3
:104D800000050300070307002C280020DA0100209B
:104D900000BFFEE710B504462CB1012211030548FF
:104DA00004F034FE05E000224FF48051014804F085
:104DB0002DFE10BD000C014010B5044621460FA089
:104DC00000F074F9240300F001F900F09AF80020D3
:104DD000FFF7E0FF2020FFF775FDC4F30740FFF762
:104DE00071FDC4F30720FFF76DFDE0B2FFF76AFD28
:104DF0000120FFF7CFFF00F084F810BD66653A256B
:104E0000780D0A0000B587B040F2036007F02AFC75
:104E10004FF48053032210210B4804F0FCFD0120C5
:104E2000FFF7B8FFFFF74AF8082006906846FFF73B
:104E300065FD00F036F8054908800846018804A0A1
:104E400000F034F907B000BD000C0140C2010020A1
:104E500049443A25780D0A002DE9F04106460C46F2
:104E600017460020FFF796FF0320FFF72BFDC4F342
:104E70000740FFF727FDC4F30720FFF723FDE0B24B
:104E8000FFF720FD002505E0FF20FFF71BFD705513
:104E9000681C85B2BD42F7DB0120FFF77BFFBDE850
:104EA000F08110B500240020FFF774FF9020FFF779
:104EB00009FD0020FFF706FD0020FFF703FD00209D
:104EC000FFF700FDFF20FFF7FDFC44EA0024FF2070
:104ED000FFF7F8FC04430120FFF75CFF204610BDFC
:104EE00010B500240020FFF755FF0520FFF7EAFC6E
:104EF000FF20FFF7E7FC04460120FFF74BFF2046A9
:104F000010BD10B500BFFFF7EBFF00F00100002857
:104F1000F9D110BD2DE9F05F81460F461646DFF846
:104F2000A8B04FEA1738C7F30B0ACAF58054A64257
:104F300000DC344644E04FEA08314FF480525846D2
:104F4000FFF78AFF002508E00AEB05001BF80000C8
:104F5000FF2800D003E0681C85B2A542F4DB00BF47
:104F6000A54216DA4046FFF727FF002507E019F8AB
:104F7000050005EB0A010BF80100681C85B2A5428B
:104F8000F5DB4FEA08314FF48052584600F029F81B
:104F900004E022463946484600F023F8A64200D1F4
:104FA0000FE008F101084FF0000AA1442744301B2C
:104FB00086B2B6F5805F02DD4FF4805400E03446DF
:104FC000B9E700BFBDE8F09F2C18002010B5002005
:104FD000FFF7E0FE0620FFF775FC0120FFF7DAFE81
:104FE00010BD2DE9F04107460E461446F0B2C0F55B
:104FF0008075AC4200DC254612E02A463146384630
:1050000000F012F8AC4200D10BE02F442E44601B9C
:1050100084B2B4F5807F02DD4FF4807500E0254650
:10502000EBE700BFBDE8F0812DE9F04106460C46F4
:105030001746FFF7CBFF0020FFF7ACFE0220FFF77B
:1050400041FCC4F30740FFF73DFCC4F30720FFF722
:1050500039FCE0B2FFF736FC002504E0705DFFF795
:1050600031FC681C85B2BD42F8DB0120FFF792FEDF
:10507000FFF747FFBDE8F08110B504462146002048
:10508000FEF7DAF910BD10B5044621464020FEF7C0
:10509000D3F910BD31B50024012269460248FCF75E
:1050A0001EF9C4B2204638BD382800200FB4054B85
:1050B00010B503A9044A029800F0D2FD10BC5DF8B7
:1050C00014FB0000A1920008D40300200FB4084B89
:1050D00010B504A902AA039800F0C2FD044602A973
:1050E000002001F054F9204610BC5DF814FB0000CC
:1050F0008F63000803B401984100009850EAC12072
:1051000018BF04204A0D18BF40F0010040F2FF72A2
:10511000B2EB515F08BF40F00200012808BF052034
:1051200002B070470000000070B5C1482DED020BC1
:105130002DED0E8B82B0119D25F000449FEDBEDB5E
:105140009FEDBFEB84423EDBA4F140511098A1F1EA
:105150007F6108430FD0BC48844202DC28D11098FC
:1051600030B39DED100B02B0BDEC0E8B02B0BDE86C
:10517000704000F069BC9DED100B53EC1D2B51EC01
:10518000100BFBF78BFB9DED100B41EC180B53EC58
:105190001E2B51EC100BFBF781FB53EC182BFBF78C
:1051A000D6FA41EC100B02B0BDEC0E8B02B070BD14
:1051B000012000F08DFC02B0BDEC0E8B02B0BDE80A
:1051C000704000F055BCA1489FEDA18B844256DA97
:1051D0009DED100BB4F1795F0ADA51EC100BFFF77B
:1051E00089FF042808BF00F053FC9DED100BDAE79F
:1051F00053EC102B51EC100BFBF750FB41EC190B4F
:1052000095480621B0EE490AF0EE690A784400F0AC
:105210009FFB53EC192B51EC100BFBF73FFB41ECC0
:105220001A0B8E48B0EE490AF0EE690A0421784460
:1052300000F08EFB53EC192B51EC100BFBF72EFBFF
:1052400053EC182BFBF783FA41EC100B51EC1A0BC3
:1052500053EC102BFBF794FBCDE900019DED000B07
:1052600053EC102B9DED100B51EC100BFBF716FBC4
:105270009DED101B53EC112BFBF769FAD2E09DED6D
:10528000100B51EC100B03F028FD53EC182BFBF71F
:1052900002FB9FED730BCDE9000153EC102B9DED4C
:1052A000000B51EC100BFBF7F9FA41EC190B6E48AF
:1052B0000621B0EE490AF0EE690A784400F048FB96
:1052C00053EC192B51EC100BFBF7E8FA41EC1B0BDC
:1052D0006648B0EE490AF0EE690A0421784400F00D
:1052E00037FB53EC192B51EC100BFBF7D7FA53ECAF
:1052F000182BFBF72CFA41EC1C0B51EC190B07F0A7
:10530000D9FA41EC180B5A489FED5BABA04222DC66
:1053100053EC1C2B51EC1B0BFBF732FBCDE90001CE
:105320009DED000B51EC180B53EC102BFBF7B6FA6C
:1053300053EC182BFBF70BFA53EC1A2BFBF7AEFAD6
:1053400053EC1D2BFBF7A4FA53EC1E2BFBF7A3FA2F
:1053500041EC100B5FE08DED008B002000909DED87
:10536000000B51EC180B53EC102BFBF7F0F99DEDF3
:10537000000B41EC1E0B53EC102B51EC100BFBF708
:105380008DFA53EC192BFBF786FA53EC1E2BFBF727
:10539000F7FA41EC190B53EC1C2B51EC1B0BFBF7F0
:1053A000EFFA41EC1B0B53EC1A2B51EC190BFBF7EA
:1053B00075FA53EC1D2BFBF76EFA41EC190B53EC0D
:1053C0001A2B51EC180BFBF769FA53EC1B2BFBF76C
:1053D00065FA53EC192BFBF75BFA9DED000B41ECE2
:1053E000180B53EC1A2B51EC100BFBF757FA9FEDEF
:1053F000249B53EC192BFBF74EFA41EC100B51ECAC
:10540000180B53EC102BFBF743FA53EC192BFBF75B
:1054100042FA41EC100B002D3FF7C5AE51EC100BDA
:1054200081F0004141EC100BBDE6000000000000DF
:105430000000F03F00000000075C143326A6913CFA
:10544000182D4454FB21F93F0000F07F0000E03F9D
:10545000000000000000F03FE85A0200F65A020087
:10546000000000000000E03F3A5A0200485A0200E3
:105470003333EF3F00000000000000000000004058
:10548000182D4454FB21E93F70B59B482DED020BCC
:105490002DED068B079D25F00044A04218DC9748AF
:1054A000844202DC0AD1069840B19DED060BBDECAA
:1054B000068B02B0BDE8704000F0C6BA002DCCBF2C
:1054C0009FED8F0B9FED900BBDEC068B02B070BD76
:1054D0008F48A04215DD8F48A042D8BF4FF0FF345F
:1054E00058DD9DED060B51EC100BFFF703FE042871
:1054F00008BF00F0CDFA9DED060BBDEC068B02B0A7
:1055000070BD9DED060B51EC100B03F0E6FBCDE9F1
:10551000060181489FED828BA0423CDD8248A0427B
:105520001FDD00249FED82AB9DED060B53EC1A2B83
:1055300051EC100BFBF70BF99DED060B41EC190B31
:1055400053EC1A2B51EC100BFBF7A8F953EC182B6A
:10555000FBF79EF953EC192BFBF712FACDE9060184
:1055600049E09DED060B012453EC182B51EC100B78
:10557000FBF7EDF89DED060B41EC190B53EC182BE6
:1055800051EC100BFBF784F953EC192BFBF7F8F9EE
:10559000CDE906012FE06848A0421FDD02249FEDFF
:1055A000689B9DED060B53EC192B51EC100BFBF790
:1055B00075F953EC182BFBF7CAF89DED060B41EC7F
:1055C000180B53EC192B51EC100BFBF761F953EC52
:1055D000182BFBF7D5F9CDE906010CE09DED060B84
:1055E000032453EC102B9FED580B51EC100BFBF7E1
:1055F000C7F9CDE906019DED060B53EC102B51ECDC
:10560000100BFBF74BF941EC180B53EC182BFBF785
:1056100045F941EC190B4E480621B0EE490AF0EE6F
:10562000690A784400F094F953EC182B51EC100BF4
:10563000FBF734F941EC180B4648B0EE490AF0EE9E
:10564000690A0521784400F083F953EC192B51ECD9
:10565000100BFBF723F941EC100B51EC180B53EC3A
:10566000102B002C0EDAFBF772F89DED061B53ECA5
:10567000112BFBF713F99DED061B53EC112BFBF7D8
:105680000AF935E0FBF763F89DED061B53EC112B8F
:10569000FBF704F941EC100B2F48784400EBC400F1
:1056A00090ED001B51EC100B53EC112BFBF7F0F8B5
:1056B0009DED061B53EC112BFBF7EAF841EC100BA8
:1056C0002648784400EBC40090ED001B51EC100B11
:1056D00053EC112BFBF7DFF841EC100B002DA2BFB0
:1056E000BDEC068B02B070BD51EC100B81F0004197
:1056F00041EC100B01E70000000010440000F07FB7
:10570000182D4454FB21F93F182D4454FB21F9BFB7
:105710000000DC3F0000203E0000F33F00000000DE
:10572000000000000000F03F0000E63F0000000025
:105730000000000000000040008003400000000066
:10574000000000000000F83F000000000000F0BF73
:105750008A57020040570200CA56020082560200D1
:1057600070B56B4E2DED040B2DED028B82B0DDF884
:105770001CC0DDE905235C422CF000411C4341EADA
:10578000D474049D22F00040B44205D86C422C43EE
:1057900040EAD474B4420BD99DED061B9DED040B79
:1057A00002B0BDEC028B04B0BDE8704000F056B909
:1057B000ACF14054A4F17F641C430BD0022404EAF2
:1057C000AC7444EAD27405439FED538B9FED542B88
:1057D00007D015E09DED040B51EC100B00F03CFEE2
:1057E00042E0002C11BF012C9DED040B02B0BDEC7A
:1057F000028B04BF04B070BD022C38D0032C3BD008
:105800000B439FED491B9FED4A0B0AD0B14218D1C3
:10581000B04209D121F0804120F0804007910590ED
:105820000FE0002A15DA10E0434B7B44002C08BF40
:1058300093ED000B0DD0012C10D0022C17D0032CAF
:105840001AD0B0421DD1002A03DAB0EE410AF0EEC0
:10585000610A02B0BDEC028B04B070BD93ED000B89
:1058600051EC100B81F0004141EC100BF1E7B0EE70
:10587000480AF0EE680AECE7B0EE420AF0EE620A7F
:10588000E7E7401A00153C28C8BF8DED000B19DC76
:10589000BCF1000FBEBF10F13C0F9FED290B8DED49
:1058A000000B0FDB9DED060B53EC102B9DED040B55
:1058B00051EC100BFBF764F803F00FFA00F0CCFD8D
:1058C000CDE90001002C08BF9DED000BC1D0012CDB
:1058D00010D0022C9FED1C0B53EC102B9DED000BF8
:1058E00051EC100B0DD0FAF7D3FF53EC182BFAF74D
:1058F000CFFFB9E7019880F0004001909DED000BCB
:10590000A7E7FAF7C5FF53EC182BFAF7C4FFABE78C
:105910000000F07F00000000182D4454FB210940D6
:10592000182D4454FB2109C0182D4454FB21F9BF04
:10593000182D4454FB21F93FB2550200000000002D
:105940000000000000000000075C143326A6A13C04
:1059500070B504462DED028B4D1E00EBC500B0EE78
:10596000408AF0EE608A90ED000B35F0060017D00B
:1059700053EC182B51EC100BFAF790FF41EC100B85
:105980006D1E04EBC50090ED001B51EC100B53ECA9
:10599000112BFAF7DCFE41EC100B35F00600E7D1D5
:1059A000022D36D0042D1CD0062D1CBFBDEC028B61
:1059B00070BD53EC182B51EC100BFAF76FFF94ED00
:1059C0000A1B53EC112BFAF7C2FE53EC182BFAF713
:1059D00065FF94ED081B53EC112BFAF7B8FE41EC70
:1059E000100B53EC182B51EC100BFAF757FF94EDFA
:1059F000061B53EC112BFAF7AAFE53EC182BFAF7FF
:105A00004DFF94ED040B53EC102BFAF7A0FE41EC84
:105A1000100B53EC182B51EC100BFAF73FFF94EDE1
:105A2000021B53EC112BFAF792FE53EC182BFAF7EA
:105A300035FF94ED001B53EC112BFAF788FEBDECFB
:105A4000028B41EC100B70BD10B553EC102B51ECD8
:105A5000100BFAF77CFE41EC100B10BD10B553ECA7
:105A6000112B51EC100BFAF772FE41EC100B10BD2C
:105A70009FED050B10B553EC102B51EC100BFAF702
:105A80007FFF41EC100B10BD000000000000000083
:105A90009FED050B10B553EC102B51EC100BFAF7E2
:105AA000FDFE41EC100B10BD0000000000000010D6
:105AB00002E008C8121F08C1002AFAD170477047D7
:105AC000002001E001C1121F002AFBD17047000035
:105AD0000149086070470000D80300202DE9FF5FEE
